:100000000C9492030C94AF030C94AF030C94AF03C5
:100010000C94AF030C94AF030C94AF030C944F05F6
:100020000C94AF030C94AF030C94AF030C94AF0388
:100030000C94AF030C94AF030C94AF030C94AF0378
:100040000C94AF030C94AF030C94DD1B0C94AF0322
:100050000C94AF030C94AF030C94AF030C94AF0358
:100060000C94AF030C94AF03464730383520206D15
:10007000696E69444453004D61696E3A20303835E9
:1000800031322D303134004444533A203038353049
:10009000322D004A5945205465636820286329326F
:1000A00030313300007777772E6A7965746563683D
:1000B0002E636F6D20000D0A00005369676E616C3E
:1000C0002047656E657261746F7200FBFB0A30F742
:1000D000DF0131FBDF0232FDDF0333F7EF0434FBD6
:1000E000EF0535FDEF0636F7F70737FBF70838FD64
:1000F000F70939FDFB0C2EF7FB0B2BFEFB104BFE1B
:10010000F70F48FEEF0E57FEDF0D45FEFD114DFDCA
:10011000FD1246F7FD144FFBFD1341F7FE1558F68F
:10012000DE180000000000000000000000000000D9
:10013000FF010000000000000000000000000012AD
:1001400000F60A1400CE0A1300E20A0E001C19166B
:100150000011171700181615006F1518073D1B1111
:1001600005980A0A06170A0106170A0206170A0363
:1001700006170A0406170A0506170A0606170A07CD
:1001800006170A0806170A0906170A0F0BE50B10CF
:100190000BE50B0C0C1B0E0000A4081201611813D8
:1001A0000119181401931901012D1802012D1803CA
:1001B000012D1804012D180E011C19160111171715
:1001C00001181615016F151105980A0B0158150035
:1001D00001A4081202A31113027D191602111717A8
:1001E0000218161504CA191105980A0002A408007D
:1001F00000000000000000000000000E036F191551
:1002000004CA191105980A0003A4081206BE19169B
:10021000041117170418160E04D1190D028A0815B7
:10022000028A080004A4081105A919160511171758
:100230000518160D0597080005A40812068A180A65
:1002400006EC090106EC090206EC090306EC0904B8
:1002500006EC090506EC090606EC090706EC090898
:1002600006EC090906EC090C06EC090B06E0090D81
:100270000643190F06CE081006CE080006A4080D86
:1002800008351B0007A4080A08EA190108EA190240
:1002900008EA190308EA190408EA190508EA190620
:1002A00008EA190708EA190808EA190908EA190CFE
:1002B00008EA190B08EA190D08EA190E08EA190FDD
:1002C00008EA191008EA191108EA191208EA1914BB
:1002D00008EA191308EA191508EA191608EA19179D
:1002E00008EA191809751A0008A4080D0A131B005A
:1002F00009A4080D073D1B0A0A131B010A131B0260
:100300000A131B030A131B040A131B050A131B06FB
:100310000A131B090A131B000AA4080D0099140FE5
:100320000BE50B100BE50B000BA4080D0099140C4A
:100330000C900E000CA4083F019B01D301FB010BA4
:100340000227023B027F028702EB02F3021B032B10
:10035000039914A818EE18C11853494E45000020FF
:100360005351520000205452490000524D502B006E
:1003700000524D502D00005354522B000053545244
:100380002D0000555345520000487A0000004B48AC
:100390007A000053656300006D5300000056202072
:1003A00000006D56202000755365630044656700AA
:1003B0000053656C656374204D6F6465004357009E
:1003C0000000000000000053776565700000000029
:1003D00000536572766F20506F7300536572766FAD
:1003E0002052756E00312F340000322F340000335C
:1003F0002F340000342F34000053746172743A00BB
:1004000053746F703A000054696D653A000054737C
:100410007465703A00416D703A0000004F66733A9F
:10042000000000487A00487A006D53006D53005474
:10043000737720537465703A00536572766F20208D
:10044000202020202020506F730050573A00414D4B
:10045000503A00536572766F202020202020202003
:1004600052756E00526561647900000052756E6EBF
:10047000696E6700486F6C6400000000536574206B
:10048000462F542073746570000000462073746515
:10049000702073697A653A000000542073746570A7
:1004A0002073697A653A0000004475747920282524
:1004B0002900005B57465D20746F20726573746F6E
:1004C0007265000053562E50576D696E0000000093
:1004D00053562E50576D61780000000053562E5031
:1004E000576D69640000000053562E5057696E63C3
:1004F0000000000053562E52756E53746570000054
:1005000053562E52756E52617465000053562E4339
:1005100079636C650000000053562E414D506D61AB
:100520007800000053562E44656661756C740000B7
:10053000312F390000322F390000332F39000034B9
:100540002F390000352F390000362F390000372FA2
:10055000390000382F390000392F390000755365F4
:100560006300000075536563000000755365630008
:10057000000075536563000000755365630000005B
:10058000532F537465700075536563000000560067
:100590000000000000000000000000000010190032
:1005A000E80300000000881300004C1D000001015A
:1005B00000000000000000DC058813E803D007DC21
:1005C00005640064006400204E8813E8030000A066
:1005D0008601008813000001000000203230313213
:1005E000333435363738394142434445465B455309
:1005F000435D20746F206578697400000041555494
:100600004F0044445320454550524F4D205465738C
:100610007400476F6F64004661696C656400314B1C
:10062000487A2020202020355620202030560031C6
:100630004B487A2020202031305620202030560090
:10064000314B487A2020202031305620202035564A
:1006500000314B487A2020202031305620202D3583
:10066000560031304B487A2020202035562020205B
:100670003056003130304B487A202020355620202B
:10068000203056003230304B487A2020203556201A
:100690002020305600E80300008813000088130073
:1006A00000E80300001027000088130000E80300A2
:1006B000001027000010270000E8030000102700AA
:1006C00000000000001027000088130000881300BD
:1006D00000A08601008813000088130000400D036D
:1006E000008813000088130000B5A6BADFAB9A9CFF
:1006F0009700888888D195869A8B9A9C97D19C90F0
:10070000920045564A2F5B6A6C672F276C263D3F47
:100710003E3D007878782165766A7B6A6C67216C4B
:100720006062000011241FBECFEFD4E0DEBFCDBF5A
:1007300011E0A0E0B1E0E2ECFFE302C005900D9211
:10074000A432B107D9F714E0A4E2B1E001C01D92D0
:10075000AC34B107E1F70E94B1030C94DF1F0C9495
:1007600000000F931F93CF93DF930E94BE040E945B
:10077000B6040E942D0780E060E240E20E94590B1F
:1007800080E068E670E00E944B0B80E16AEB70E06D
:100790000E944B0B80E30E94FE0685E70E9423081F
:1007A0000E94B31B86EB90E00E940B0588E690E068
:1007B0000E940B0586EB90E00E940B0587E790E016
:1007C0000E940B0586EB90E00E940B0583E990E008
:1007D0000E940B0586EB90E00E940B0585EA90E0F5
:1007E0000E940B050E942C050E943A050E94E20817
:1007F00010922001109221011092220180E890E0D5
:100800000E948C05823C91F4C1E8D0E0CE010E94A8
:100810008C05FE01E158FF4F809580832196C13AF7
:10082000D105A1F78CE6809320010AC080E062E048
:1008300077E00E940E1C80E163E177E00E940E1CCD
:10084000809120010E94FE06809321018091200169
:100850000E942308809322010E94E20880E067E75B
:1008600070E00E944B0B80E167E870E00E944B0B48
:100870008DE08093330183E391E00E94AD0680E434
:100880009CE99093310180933001CBE1D0E000E40A
:100890001CE910C04A990EC00E94CF1DFE01E05015
:1008A000FF4F808310933101009330012196CE31A8
:1008B000D10531F08091300190913101892B51F7B0
:1008C00081E40E94FE0687E70E94230880912001B0
:1008D0008C3651F4809121018A3731F480912201C4
:1008E0008D3611F4109222010E945D127894C0E5B9
:1008F000D3EC8091480186FF07C00E94B805809123
:1009000048018F7B8093480180912901882311F051
:100910000E94720880915E018A30C9F48091BA0108
:100920008823A9F48091300190913101892B79F4C9
:100930008091B9018F5F8093B901873010F01092D8
:10094000B9010E94A91AD0933101C09330010E94CD
:100950002E1D80914D0187FFCCCF80914D018F7767
:1009600080934D018CE20E94FE06C3CF15BEE1E6E6
:10097000F0E080E88083108213BC08958EEF85B983
:100980008FE384B98FE188B980E287B98DEF8BB9A5
:100990008CEF8AB90895109269001DBA83E08CBB70
:1009A0001092680087E08BBB10926D0010926C0073
:1009B00010926B0008951092C00088E18093C100EE
:1009C00086E08093C2001092C5008FE18093C4003E
:1009D0000895982F8091C00085FFFCCF9093C600AA
:1009E00008958091C00087FFFCCF8091C6000895D4
:1009F0008091C000881F8827881F0895FC0107C0C8
:100A00008091C00085FFFCCF9093C6003196908105
:100A10009923B1F70895FC0107C08091C00085FFBC
:100A2000FCCF9093C600319694919923B1F7089525
:100A300087E080BF81E080937F00089585E4809304
:100A40007C0085E180937A0080E480937B0080E3E2
:100A500080937E000895089583E884BD81E085BD7C
:100A600016BC80EC87BD8FEF88BD10926E0087E0CA
:100A700085BB089592E09093B00084E08093B1002C
:100A80001092B20080E28093B30080E68093B400BD
:100A90009093700087E087BB1092B60008951F9274
:100AA0000F920FB60F9211248F939F93809148015C
:100AB0008064809348018091300190913101892BAD
:100AC00049F080913001909131010197909331016B
:100AD000809330019F918F910F900FBE0F901F90C8
:100AE000189580E090E020E2FC01E050FF4F208369
:100AF000019680329105C1F708952FEF30E040E074
:100B000050E00E948A1F20E137E240E050E00E945E
:100B1000BD1F209527BD0895F999FECF81BD92BDD7
:100B2000F89A80B50895F999FECF81BD92BD60BD58
:100B3000F894FA9AF99A78940895DC0140E0FD015E
:100B4000859194918617970769F41296FD01849117
:100B50008093290180932B011196FD01849180934C
:100B6000260108954F5F493111F01496E8CF08959A
:100B7000FF920F931F93CF93DF938FEF9FEF90938D
:100B80002501809324018FEDF82E00E010E023C0B2
:100B900085B19F2D9E73817C982B95B984E190E05F
:100BA0000E940F0886B18F708F3081F02091240150
:100BB0003091250190E0806FDF2DC0E08C2B9D2BC4
:100BC000822393239093250180932401F69420E8B7
:100BD000F22A0F5F1F4F05301105D1F685B18E63E4
:100BE00085B95B9884E190E00E940F0816B11F70F0
:100BF0001F3071F02091240130912501812F90E068
:100C0000806F9E6F8223932390932501809324010C
:100C10005B9A80912401909125018F5F9F4F59F03D
:100C2000609124017091250180912D0190912E01F8
:100C30006817790781F080912401909125019093A4
:100C40002E0180932D01109249011092470182E3F9
:100C5000809328011CC0809149018F5F80934901D6
:100C6000853178F08F3F99F484E180934901809138
:100C700047018F5F8093470190912801891739F4CC
:100C800002C0843121F48BEC90E00E949D05169502
:100C900080914A01880F880F80934A0180914A0110
:100CA0001370182B10934A01E0914A01F0E0EF70A5
:100CB000F070E15DFE4FE491E0932A0180912A01FA
:100CC000813029F487E180932901109226018091D7
:100CD0002A018F3F31F486E18093290181E08093DE
:100CE0002601DF91CF911F910F91FF9008950F93EF
:100CF0001F93082F5C9882E090E00E940F085F9895
:100D000082E090E00E940F0814E65D9882E090E097
:100D10000E940F085D9A82E090E00E940F08115037
:100D2000A1F75F9A82E090E00E940F080BC05D98E7
:100D300082E090E00E940F085D9A82E090E00E94BD
:100D40000F080150002399F75C9A82E090E00E941E
:100D50000F085D9A1F910F9108951F93CF93DF9312
:100D6000EC01529A5A9888EC90E00E940F088DE3AB
:100D70000E94E21D88EC90E00E940F0811E1899129
:100D80000E94E21D88EC90E00E940F081150B9F714
:100D90005A9A5298DF91CF911F9108950F931F9304
:100DA000182F062F0E943F08112311F0299A01C025
:100DB000299825B110E0C801807F9070959587959E
:100DC00095958795237C282B25B90E94C41D289AC8
:100DD0000E94C41D289885B10F701070000F111F5C
:100DE000000F111F837C802B85B90E94C41D289A97
:100DF0000E94C41D28981F910F9108951F93CF93AF
:100E0000DF93182F80E060E80E94CE06C0E0D0E0BB
:100E1000FE01E050FF4F608181E00E94CE062196E6
:100E2000C031D105A9F780E060EC0E94CE06C0E198
:100E3000D0E0FE01E050FF4F608181E00E94CE06CD
:100E40002196C032D105A9F71C3611F080E101C00E
:100E50008AE7DF91CF911F9108951F9388E290E078
:100E60000E944F081CE015B90E94C41D289A0E94D8
:100E7000C41D28988AE090E00E944F0815B90E948E
:100E8000C41D289A0E94C41D289881E090E00E9409
:100E90004F0888E085B90E94C41D289A0E94C41D8D
:100EA000289880E068E20E94CE0680E068E00E9418
:100EB000CE0680E061E00E94CE0685E090E00E94D0
:100EC0004F0880E066E00E94CE0680E06CE00E9461
:100ED000CE060E943F081F9108958F929F92AF9275
:100EE000BF92CF92DF92EF92FF920F931F93CF9317
:100EF000DF934B015C01C42EE90199E0D92ED41A8D
:100F000081E0E82EF12C012D112D0BC0C801B70195
:100F10002AE030E040E050E00E948A1F7B018C0113
:100F2000DA94DD2099F7C501B401A80197010E9468
:100F3000BD1FCC0DD11D822F8063888330E040E03F
:100F400050E0CA01B901A80197010E948A1FA501BA
:100F50009401261B370B480B590BB901CA01DF91CD
:100F6000CF911F910F91FF90EF90DF90CF90BF90A6
:100F7000AF909F908F9008951F93CF93DF93EA01D6
:100F800010E0412F9E010E946D071F5F1A30C9F7C4
:100F90001A861B86CE01DF91CF911F910895CF93C2
:100FA000DF93EC01688179818A819B814E815F8129
:100FB0000E94BC078C818823C9F099E0981B20E02F
:100FC00030E007C0FD01E40FF11DA20FB31F8C91AB
:100FD0008083422F2F5F3F4F822F8150AE81BF8190
:100FE000891780F3A90FB11D8EE28C938C81882321
:100FF00011F481E001C08E5F2AE0281B90E030E20E
:1010000009C0EE81FF81E90FF11D8081803321F459
:1010100030839F5F9217A8F3DF91CF910895DF93FC
:10102000CF9300D0CDB7DEB703C089819A810197F5
:101030009A83898389819A81892BB9F70F900F90C0
:10104000CF91DF910895982F86E920E63AEE02C00D
:101050002150304021153105D9F78150B1F79C3628
:1010600009F48DE60895CF93DF93EC0103C00E944D
:10107000C41D21972097D9F7DF91CF9108951F9331
:1010800012E30E94C41D1150E1F71F9108951F93B0
:1010900014E10E943F081150E1F71F910895CF938A
:1010A000DF93EC0103C00E94470821972097D9F7EE
:1010B000DF91CF910895FB01DA010DC0981751F42B
:1010C0008C9180935F01319684918C933196259118
:1010D000349106C034969491992381F724EA38E03C
:1010E000C901089590912901992399F080915E0199
:1010F000E82FF0E0EE0FFF1FE95CFC4F6591749163
:10110000892F4EE551E00E945B08FC010995109281
:10111000290108958091790190E0880F991F8F5AD5
:101120009C4FFC0125913491F90109950895809116
:10113000790190E0880F991F8F5A9C4FFC012591EF
:101140003491F90109950895089596E090935E0110
:1011500080936C0160936D018EE491E090936B013C
:1011600080936A0110926E0110926F0110927001CB
:1011700040937601309378012093770190E02FE53A
:1011800008C0E0916A01F0916B01E90FF11D208325
:101190009F5F80916D019817A0F3089580916E0173
:1011A000882311F48DE002C080912B01809375019A
:1011B0008091760180935E01E0917701F091780152
:1011C0000995089580E090E020E2FC01E050FF4F97
:1011D0002083019680329105C1F70895FF920F9305
:1011E0001F93CF93DF9380916E01882349F1F09094
:1011F0006D01C0916A01D0916B0100E060E070E088
:1012000080E090E012C018811E3289F01F3559F03D
:101210002AE030E040E050E00E948A1F1F70610F1A
:10122000711D811D911D0F5F21960F1560F3609355
:10123000710170937201809373019093740181E046
:10124000DF91CF911F910F91FF900895EF92FF9240
:101250000F931F93CF93DF9380916E01882309F43E
:101260005FC0E0906D01C0916A01D0916B01FF24D5
:1012700020E030E040E050E000E024C0FF2031F00A
:10128000802F90E08F199109049704F518811E3280
:1012900019F01F3531F414C0FF2009F041C0F02EC1
:1012A0000FC0CA01B9012AE030E040E050E00E94DE
:1012B0008A1F9B01AC011F70210F311D411D511D63
:1012C0000F5F21960E15D0F2FF2021F001500F196B
:1012D0000093700180917001882341F4293399E8CB
:1012E000390791E4490790E05907D0F413E0181B3F
:1012F0000BC0CA01B9012AE030E040E050E00E9492
:101300008A1F9B01AC011150112399F720937101A1
:1013100030937201409373015093740181E001C0D6
:1013200080E0DF91CF911F910F91FF90EF90089592
:1013300090E02FE508C0E0916A01F0916B01E90FA0
:10134000F11D20839F5F80916D019817A0F3089590
:10135000CF93DF9390916D0180916C01A82FB0E045
:10136000C0916A01D0916B0120E030E0AD0109C06D
:10137000F901E40FF51F8991E050FF4F80832F5F43
:101380003F4F2917A8F380916F01813049F08130D8
:1013900018F0823069F408C0A150BF4F8FE507C034
:1013A000A150BF4F8DE203C0A150BF4F8BE28C9381
:1013B00080914D01806880934D01DF91CF91089518
:1013C00080916F01813011F081E001C082E0809353
:1013D0006F010E94A809089540E009C0E0916A01E8
:1013E000F0916B01E20FF31F818180834F5F242F07
:1013F00030E080916D0190E001972817390774F370
:10140000E0916A01F0916B01E20FF31F80912601D8
:10141000808380916E018F5F80936E0190916D014A
:10142000981710F490936E010E94A8090895809176
:101430007901882331F580E090E020E2FC01E05062
:10144000FF4F2083019680329105C1F780E090E044
:1014500005C0E32FF0E0E050FF4F2083382FFC0160
:10146000E458FB4F24910196222399F781E168E02B
:1014700040E025EF33E10E94A5080E94EC090E949C
:10148000A809089580E090E020E2FC01E050FF4FC1
:101490002083019680329105C1F780E090E005C07D
:1014A000E32FF0E0E050FF4F2083382FFC01EF5492
:1014B000FC4F24910196222399F78091BA01482F7D
:1014C00050E09A01220F331FCA0173E0880F991F61
:1014D0007A95E1F7280F391F23543C4F80E106C06D
:1014E000E82FF0E0E050FF4F90838F5FF9012F5F0E
:1014F0003F4F94919923A1F7CA01880F991F880F34
:10150000991F840F951F8B519C4F2DE106C0E22F30
:10151000F0E0E050FF4F30832F5FFC0101963491E3
:101520003323A9F780914D01806880934D01089580
:101530001092BA010E94420A08959091880186E0B3
:10154000989FC0011124875A9C4F2CE006C0E22FBF
:10155000F0E0E050FF4F30832F5FFC0101963491A3
:101560003323A9F7089580E280930001809310014E
:1015700080931901E091B901EC3050F4F0E0E456A9
:10158000FA4FE491F0E08091B801E050FF4F808382
:1015900080914D01806880934D0108958091B9013B
:1015A000823031F082E08093B9010E94B30A08953D
:1015B0008AE166E040E02CE334E10E94A5080E9445
:1015C000A80908958091B901813031F081E08093BC
:1015D000B9010E94B30A089581E166E040E02EE27D
:1015E00032E10E94A5080E94A80908958091B901DE
:1015F000882329F01092B9010E94B30A08958091BE
:101600000001863411F484E501C086E48093000172
:101610008AE38093010183E068E040E02EE03FE050
:101620000E94A5080E94A80908958F929F92AF92E8
:10163000BF92CF92DF92EF92FF920F931F93FC0124
:101640004B0179018A0160817181828193810E94BD
:10165000991E5B016C01C801B70120E030E040E851
:1016600053E30E94271F9B01AC01C601B5010E94F4
:10167000001E0E946D1EF401608371838283938338
:101680001F910F91FF90EF90DF90CF90BF90AF90A0
:101690009F908F90089506C0E82FF0E0E050FF4F34
:1016A00090838F5FFB016F5F7F4F94919923A1F728
:1016B000089520E030E090E008C0F901E80FF91F3C
:1016C000E050FF4F40832F5F3F4F2617B0F3089540
:1016D000CF93DF93EC01CA01DB01803422E492074F
:1016E0002FE0A20720E0B20720F08FE392E4AFE002
:1016F000B0E088839983AA83BB83DF91CF9108955B
:10170000CF93DF93C0E0D0E0FE01E758FE4FCE015B
:101710008D5F9F4F60810E9493052196CE33D10546
:1017200099F7DF91CF910895FF920F931F93CF9375
:10173000DF93F82E162FFA016081718182819381E7
:1017400043E351E00E94BC0720E030E090E2522FDA
:10175000F901ED5CFE4F8081803339F490835F5F47
:101760002F5F3F4F2930310591F7012F015040E0A5
:1017700010E0202F30E08F2D90E0B901680F791F25
:10178000EB01C350DF4F433041F4573010F080E29B
:1017900001C08CE2888311E00FC0842F90E0DB0150
:1017A000A81BB90BE12FF0E0E81BF90BE45CFE4F3E
:1017B0008081A050BF4F8C934F5F041720F7DF91BB
:1017C000CF911F910F91FF90089580E090E020E26B
:1017D000FC01E050FF4F2083019680329105C1F754
:1017E00080912601883419F080E090E02BC080E0E1
:1017F00090E005C0E32FF0E0E050FF4F2083382F4A
:10180000FC01E557FB4F24910196222399F788E4C8
:1018100080931B018AE780931C016091890170917C
:101820008A0180918B0190918C0143E351E00E94E9
:10183000BC0720E030E090E21CC0E32FF0E0E05075
:10184000FF4F2083382FFC01E656FB4F2491019671
:10185000222399F78DE680931B0183E780931C0177
:1018600060918D0170918E0180918F019091900116
:10187000DCCFF901ED5CFE4F8081803319F020E070
:1018800030E007C090832F5F3F4F2930310589F743
:10189000F6CFF901ED5CFE4F8081F901E05FFE4F6C
:1018A00080832F5F3F4F2A30310599F780914D019A
:1018B000806880934D01089583E080933301809187
:1018C000B901809334018091950190919601909394
:1018D0003601809335018091970190919801909302
:1018E00038018093370180919D0190919E019093E2
:1018F0003A018093390180919F019091A0019093CA
:101900003C0180933B018091A1019091A2019093B1
:101910003E0180933D0183E391E00E94AD0608956E
:1019200080E090E020E2FC01E050FF4F2083019630
:1019300080329105C1F780E090E005C0E32FF0E030
:10194000E050FF4F2083382FFC01ED5AFB4F2491CC
:101950000196222399F78091B90190E0F3E0880F76
:10196000991FFA95E1F78C599B4F20E106C0E22FB1
:10197000F0E0E050FF4F30832F5FFC01019634917F
:101980003323A9F780914D01806880934D010E9417
:101990005C0C089582E080933301109234018091B1
:1019A000910190919201909336018093350180913D
:1019B000A1019091A201909338018093370183E3B4
:1019C00091E00E94AD0608956F927F928F929F9250
:1019D000AF92BF92CF92DF92EF92FF920F931F933D
:1019E00081E0809333018091B8018A3211F490E450
:1019F00001C090E08091B501823411F420E201C071
:101A000020E0809188018F71982B922B9093340164
:101A100085EA91E065E371E020E836E948E15AE4BF
:101A20000E94150B89EA91E069E371E020E836E94C
:101A300048E15AE40E94150B6090B1017090B20128
:101A40008090B3019090B4016091AD017091AE01AE
:101A50008091AF019091B001A40193010E94BD1F3C
:101A6000C901DA015C016D01A114B104C104D10402
:101A700029F4B1E0AB2EB12CC12CD12C60913901ED
:101A800070913A0180913B0190913C012091350188
:101A9000309136014091370150913801621B730B30
:101AA000840B950B982F872F762F66270E949B1EFD
:101AB0007B018C01C601B5010E94991E9B01AC01FE
:101AC000C801B7010E94001E0E94681E6093390180
:101AD00070933A0180933B0190933C01A094B094A1
:101AE000C094D094A0923D01B0923E01C0923F01BB
:101AF000D09240018827992786199709909342012F
:101B00008093410180E09091B60164E670E00E940C
:101B1000A91F6093430183E391E00E94AD061F91EA
:101B20000F91FF90EF90DF90CF90BF90AF909F907C
:101B30008F907F906F90089580917E01882311F59A
:101B400080917A0190917B01A0917C01B0917D01FF
:101B50008997A105B10558F08AE791E065E371E046
:101B600020E836E948E15AE40E94150B2CC08AE7C8
:101B700091E065E371E020E030E44CE156E40E943E
:101B8000150B37C060917A0170917B0180917C01C7
:101B900090917D016931710581059105B0F40E9434
:101BA000991E9B01AC0168E177EB81ED95E40E9401
:101BB000001E0E946D1E6093350170933601809364
:101BC00037019093380190E015C00E94991E9B0147
:101BD000AC016CEC7CEC8CEC99E40E94001E0E9441
:101BE0006D1E609335017093360180933701909399
:101BF000380190E88091B8018A3211F420E401C0E4
:101C000020E010923301809188018F71982B922BE4
:101C1000909334019091B6018FEF989FC0011124E9
:101C200064E670E00E94A91F6093430183E391E0A2
:101C30000E94AD06089580E090E020E2FC01E050B3
:101C4000FF4F2083019680329105C1F780E090E03C
:101C500005C0E32FF0E0E050FF4F2083382FFC0158
:101C6000E755FB4F24910196222399F76091B60125
:101C700070E080E090E043E351E00E94BC0720E088
:101C800030E090E2F901ED5CFE4F80818033A1F0FD
:101C900080913A018093110180913B018093120160
:101CA00080913C018093130180914D018068809365
:101CB0004D010E949C0D089590832F5F3F4F293066
:101CC000310501F7E5CF809175018F50823028F5FD
:101CD0000E94EE08882309F18091710190917201B0
:101CE000A0917301B091740185369105A105B105EC
:101CF00060F084E690E0A0E0B0E080937101909302
:101D00007201A0937301B0937401609171016093AB
:101D1000B60180E490E00E9493050E941B0E089596
:101D20000E941B0E81E165E04CE023E63EE00E944C
:101D3000A5080E94A809089560917A0170917B011D
:101D400080917C0190917D0143E351E00E94BC07AA
:101D500082E090E020E2FC01E050FF4F20830196FA
:101D60008C309105C1F7E0917F018E2F8150823038
:101D700010F446E001C049E024E030E050E2922F48
:101D8000D901AD5CBE4F8C91803331F45C939F5F81
:101D90002F5F3F4F241798F3809137018093010103
:101DA0008091380180930201809139018093030171
:101DB000EE2311F0E33031F4973010F080E203C0ED
:101DC0008CE201C08EE28093040180913A018093FD
:101DD000050180913B018093060180913C01809335
:101DE000070185E0E89FC001112487579C4F28E038
:101DF00006C0E22FF0E0E050FF4F30832F5FFC0180
:101E0000019634913323A9F70E94B30A80914D01C2
:101E1000806880934D010E949C0D0895EF92FF927F
:101E20000F931F93E0907A01F0907B0100917C0169
:101E300010917D01809175018F3021F0803109F082
:101E400056C00EC080910001863429F410927E01A4
:101E500010927F0113C081E080937E0182E00CC06C
:101E600080910001863421F410927E0181E004C04B
:101E700081E080937E0183E080937F0180917F01E8
:101E8000882311F0833019F40E94EE0805C08150B8
:101E9000823060F40E942609882341F0E0907101AD
:101EA000F0907201009173011091740180917E0194
:101EB000813029F4E114F10401051105B1F0D801D4
:101EC000C701803422E492072FE0A20720E0B20786
:101ED00020F08FE392E4AFE0B0E080937A0190933A
:101EE0007B01A0937C01B0937D010E94800B0E9436
:101EF0009C0E1F910F91FF90EF900895AF92BF92AB
:101F0000CF92DF92EF92FF920F931F93DF93CF93C5
:101F100000D0CDB7DEB700E07EE0C72E68E0D62E59
:101F200050E4E52E5CE9F52EC0923301D0923401E5
:101F3000202F30E0C90143E0880F991F4A95E1F74F
:101F400080933501C901809623E0880F991F2A9557
:101F5000E1F713E0A12EB12C9C012F5F3F4F3A8394
:101F600029830E948C05F501ED5CFE4F8083089467
:101F7000A11CB11C89819A813BE0A316B10461F7D1
:101F800083E391E00E94AD0688EE93E00E940F0883
:101F9000F0923101E09230010DC04A990BC00E94CD
:101FA000CF1D182F80E593EC0E940F081D3309F018
:101FB000BBCF07C08091300190913101892B69F727
:101FC000B3CF0F5F003208F4AFCF0F900F90CF91D7
:101FD000DF911F910F91FF90EF90DF90CF90BF9016
:101FE000AF90089580E090E020E2FC01E050FF4FC8
:101FF0002083019680329105C1F76091B701A62F29
:10200000B0E0CD01880F991F8A0F9B1F880F991F81
:10201000880F991F8C539B4F9C0105C0E52FF0E062
:10202000E050FF4F4083522F581BF9012F5F3F4F65
:102030004491442399F7CD01880F991F880F991F68
:102040008A0F9B1F805D9A4F2DE006C0E22FF0E0C3
:10205000E050FF4F30832F5FFC0101963491332312
:10206000A9F7CD0123E0880F991F2A95E1F78A1B74
:102070009B0B835A9A4F27E106C0E22FF0E0E05015
:10208000FF4F30832F5FFC01019634913323A9F772
:102090006530C1F1653050F06730A1F1673030F044
:1020A000683009F06AC080E090E05EC0AA0FBB1FF4
:1020B000AB56BE4F8D919C91A0E0B0E08093620141
:1020C00090936301A0936401B0936501109266013F
:1020D00083E391E0909369018093680182E691E047
:1020E0000E94CF0725E030E0F901ED5CFE4F8081D2
:1020F000F901E55FFE4F80832F5F3F4F2A303105A6
:1021000099F73BC0AA0FBB1FAB56BE4F8D919C9158
:10211000A0E0B0E08093620190936301A09364011A
:10212000B093650183E08093660183E391E090932F
:1021300069018093680182E691E00E94CF0723E065
:1021400030E0F901ED5CFE4F8081F901E35FFE4F65
:1021500080832F5F3F4F2830310599F70EC0E32F62
:10216000F0E0E050FF4F2083382F305FFC01ED544A
:10217000FB4F24910196222391F780914D018068B5
:1021800080934D010895809175018F3019F0803151
:1021900059F50BC08091B701853091F0853098F0EA
:1021A000863089F0873001F50BC08091B70185300A
:1021B00051F0853028F0863019F08730A9F403C03B
:1021C0000E94260902C00E94EE08882369F0E0916F
:1021D000B701F0E0EE0FFF1FEB56FE4F809171014B
:1021E00090917201918380830E94800B0E94F20F74
:1021F00008952091950130919601809191019091DF
:1022000092018217930720F4309392012093910159
:1022100020919701309198018091910190919201C4
:102220002817390720F4309392012093910180916F
:10223000910190919201A0E0B0E0809362019093AF
:102240006301A0936401B09365011092660183E37A
:1022500091E0909369018093680182E691E00E9489
:10226000CF0780E090E020E2FC01E050FF4F2083A8
:10227000019680329105C1F780E090E005C0E32F20
:10228000F0E0E050FF4F2083382FFC01E75CFB4F6C
:1022900024910196222399F725E030E0F901ED5CC5
:1022A000FE4F8081F901E15FFE4F80832F5F3F4F3A
:1022B0002A30310599F780E28093130180E090E0A5
:1022C00005C0E32FF0E0E050FF4F2083382F305F50
:1022D000FC01E65BFB4F24910196222391F780E0FD
:1022E00090E005C0E32FF0E0E050FF4F2083382F4F
:1022F000365EFC01E955FC4F24910196222391F7AB
:1023000080914D01806880934D010E94CA0C089510
:10231000809175018F3019F0803181F403C00E94E3
:10232000EE0802C00E942609882341F080917101C5
:102330009091720190939201809391010E94F91003
:102340000E94800B08958091B901833031F083E0C1
:102350008093B9010E94F910089584E165E042E09C
:1023600028E831E10E94A5080E94A80908951F935A
:10237000182F8091800190918101A0918201B091EC
:10238000830181519742A040B04060F080E197E224
:10239000A0E0B0E08093800190938101A09382013E
:1023A000B0938301609180017091810180918201DD
:1023B0009091830143E351E00E94BC07A12FB0E05C
:1023C00080913801803311F480E202C0809138019D
:1023D000FD01E050FF4F808380913901FD01EF5FE7
:1023E000FE4F8083FD01EE5FFE4F8EE28083809181
:1023F0003A01FD01ED5FFE4F8083FD01EC5FFE4F72
:1024000090E29083FD01EB5FFE4F86E58083AA5F3B
:10241000BE4F9C9380917901882311F40E94B30AE6
:1024200080914D01806880934D0160918001709191
:102430008101809182019091830124E630E040E0A7
:1024400050E00E948A1F20E137E240E050E00E9405
:10245000BD1F822F0E9477061F91089580917501FC
:102460008F3019F08031C1F403C00E94260902C0E8
:102470000E94EE08882381F0809171019091720191
:10248000A0917301B09174018093800190938101B8
:10249000A0938201B09383010E94800B8091790107
:1024A000882319F481E10E94B7118091790181306C
:1024B00019F485E10E94B71108950F931F93CF93EC
:1024C000DF93109229011092480110924D0180E093
:1024D0000E94770610924B0180E090E00E948C05EC
:1024E000182F81E090E00E948C05082F82E090E098
:1024F0000E948C051A3FA1F40F3591F4843081F4C9
:10250000C0E0D0E0CE018D5F9F4F0E948C05FE01A0
:10251000E758FE4F80832196CE33D10599F71FC02F
:1025200080E090E0FC01E156FA4FE491DC01A7580D
:10253000BE4FEC9301968E339105A1F70E94800B5C
:1025400080E090E06AEF0E94930581E090E06FE503
:102550000E94930582E090E064E00E94930580E190
:1025600097E20E940F0880917901843010F0109258
:1025700079018091790190E0880F991F8F5A9C4FC3
:10258000FC0125913491F9010995DF91CF911F91BB
:102590000F9108952091A3013091A401809193019E
:1025A000909194012817390720F4309394012093D7
:1025B00093018091930190919401A0E0B0E0809309
:1025C000620190936301A0936401B093650183E07D
:1025D0008093660183E391E09093690180936801A1
:1025E00082E691E00E94CF0780E090E020E2FC01CB
:1025F000E050FF4F2083019680329105C1F780E0C3
:1026000090E005C0E32FF0E0E050FF4F2083382F2B
:10261000FC01E75CFB4F24910196222399F78091FE
:1026200037018093150180913801809316018091C4
:1026300039018093170180913A018093180180E25B
:102640008093140180E090E005C0E32FF0E0E050BB
:10265000FF4F2083382F305FFC01E25BFB4F24915A
:102660000196222391F780E090E005C0E32FF0E08F
:10267000E050FF4F2083382F375EFC01E356FC4FBC
:1026800024910196222391F780914D0180688093D7
:102690004D01609193017091940180E090E024E6F7
:1026A00030E040E050E00E948A1F20E137E240E045
:1026B00050E00E94BD1F822F0E9477066091930117
:1026C000709194017695679580E090E068577C4E14
:1026D0008F4F9F4F0E947D050895809175018F3027
:1026E00029F0803179F40E94EE0802C00E94260988
:1026F000882341F08091710190917201909394012F
:10270000809393010E94CA120E94800B08950F9338
:102710001F93082F209184013091850140918601FB
:1027200050918701283883E1380780E0480780E02E
:10273000580740F0CA01B901685873418040904081
:1027400010E009C068E873E180E090E0621B730B61
:10275000840B950B11E043E351E00E94BC07A02FCE
:10276000B0E0FD01E050FF4F80E28083FD01EF5FAC
:10277000FE4F8083113011F08BE201C08DE2FD012C
:10278000EE5FFE4F808380913901FD01ED5FFE4FCA
:102790008083FD01EC5FFE4F8EE2808380913A01E1
:1027A000FD01EB5FFE4F8083FD01EA5FFE4F80E29B
:1027B0008083A95FBE4F86E58C9380917901882341
:1027C00011F40E94B30A80914D01806880934D01FD
:1027D00060918401709185018091860190918701BB
:1027E0000E947D051F910F910895809175018F5072
:1027F000823040F50E94EE08882321F1809171011A
:1028000090917201A0917301B09174010097A1059C
:10281000B105C1F0209175012F3019F0203191F4EC
:1028200009C08093890190938A01A0938B01B09392
:102830008C0108C080938D0190938E01A0938F012D
:10284000B09390010E94800B80E090E020E2FC01B8
:10285000E050FF4F2083019680329105C1F70E941E
:102860009D0A0E949C0E81E10E94B71188E10E949E
:1028700087130E94B30A0895809175018F3021F06B
:10288000803109F045C003C00E94260902C00E94A1
:10289000EE08882341F0709171016091720190916E
:1028A000730180917401272F362F492F582FC901AA
:1028B000DA019C01AD01293883E1380780E048073F
:1028C00080E0580720F028E833E140E050E08091B4
:1028D0006F01813089F488E893E1A0E0B0E0821BC9
:1028E000930BA40BB50B8093840190938501A09367
:1028F0008601B09387010CC028573C4E4F4F5F4F65
:102900002093840130938501409386015093870181
:1029100080917901882319F488E10E9487138091BE
:102920007901813019F484E10E9487130E94800BA1
:10293000089510925E011092BA011092B9018EE3CF
:102940008093B80180E090E020E2FC01E050FF4F6E
:102950002083019680329105C1F70E949D0A0E9452
:102960009C0E81E10E94B71188E10E9487130E94AA
:10297000B30A089580E090E020E2FC01E050FF4FB0
:102980002083019680329105C1F780E090E005C078
:10299000E32FF0E0E050FF4F2083382FFC01E95394
:1029A000FC4F24910196222399F78091B8018A3235
:1029B00011F4809306018091B501809307010E9474
:1029C0009D0A4091B901242F30E0C901B3E0880F7E
:1029D000991FBA95E1F7821B930B81539C4F60E1DD
:1029E00006C0E62FF0E0E050FF4F70836F5FFC0100
:1029F000019674917723A9F7842F86508430F8F4D8
:102A0000C901880F991F820F931F8F5E9B4F2EE184
:102A100006C0E22FF0E0E050FF4F30832F5FFC0153
:102A2000019634913323A9F750E0440F551F440F0A
:102A3000551F43575E4F86E167E00E94940B8091DB
:102A4000B9018A3021F485E10E94B71117C0609165
:102A5000800170918101809182019091830124E62F
:102A600030E040E050E00E948A1F20E137E240E081
:102A700050E00E94BD1F822F0E9477068091B9010D
:102A80008B3021F484E10E9487130AC06091840195
:102A90007091850180918601909187010E947D054A
:102AA00080914D01806880934D010E94E40C08954F
:102AB0008091B501803211F482E401C080E28093FC
:102AC000B5018FE390E06091B5010E9493050E94EB
:102AD000BA1480914D01806880934D0108958091D2
:102AE000B8018E3311F48AE201C08EE38093B801FD
:102AF00080915E01882319F0813041F405C00E9465
:102B0000B30A0E949C0D02C00E94BA1480914D012C
:102B1000806880934D010895EF92FF920F931F9369
:102B2000DF93CF930F92CDB7DEB78091B901E82F35
:102B3000F0E0EE0FFF1FEE0FFF1FE357FE4FE080A8
:102B4000F18002811381909175019F3021F09031C5
:102B500009F064C004C08650823050F410C0865022
:102B6000823018F021E029830BC0198281E003C074
:102B700081E0898382E08150823088F404C0198228
:102B80000E94EE0802C00E942609882341F0E090CE
:102B90007101F09072010091730110917401E9814B
:102BA000E13029F4E114F10401051105E1F080910F
:102BB000B901E82FF0E0EE0FFF1FEE0FFF1FE35704
:102BC000FE4FD801C701803422E492072FE0A2070C
:102BD00020E0B20720F08FE392E4AFE0B0E0808322
:102BE0009183A283B3838091B1019091B201A091AE
:102BF000B301B091B40180509040A140B04060F06A
:102C00008FEF9FEFA0E0B0E08093B1019093B2010D
:102C1000A093B301B093B4010E94800B0E94BA1438
:102C20000F90CF91DF911F910F91FF90EF9008953A
:102C300080915E01882309F084C08091B9018130C0
:102C400009F444C0813020F0823009F078C05BC0C4
:102C500080917E018823B1F480917A0190917B016B
:102C6000A0917C01B0917D012091890130918A0170
:102C700040918B0150918C0182179307A407B507EF
:102C800010F115C080917A0190917B01A0917C0197
:102C9000B0917D0120918D0130918E0140918F0185
:102CA00050919001281739074A075B0760F4821B8F
:102CB000930BA40BB50B80937A0190937B01A093A7
:102CC0007C01B0937D010E949C0E39C080918001EF
:102CD00090918101A0918201B09183018436910588
:102CE000A105B10560F084569040A040B0408093AB
:102CF000800190938101A0938201B093830181E1CF
:102D00000E94B7111CC08091840190918501A0910F
:102D10008601B091870184369105A105B10560F067
:102D200084569040A040B0408093840190938501E8
:102D3000A0938601B093870188E10E9487130E94C7
:102D4000800B80915E01813081F48091B9018630E1
:102D500060F08A3050F481508093B901853019F4C5
:102D600086E08093B9010E94BA1480915E0182309E
:102D7000E9F58091B901833019F08430A9F520C0BC
:102D8000209191013091920160919501709196018D
:102D900040919B0150919C01CA01860F971F821799
:102DA000930738F4241B350B309392012093910143
:102DB00004C070939201609391010E94F91014C0B5
:102DC00080919301909194018536910538F0845655
:102DD0009040909394018093930104C010929401C9
:102DE000109293010E94CA120E94800B80915E0192
:102DF000843049F48091B701882319F08150809381
:102E0000B7010E94F20F80915E01853049F48091F4
:102E1000BA01882329F081508093BA010E94420AA6
:102E2000089580915E01882309F089C08091B901DD
:102E3000813091F1813020F0823009F07EC055C0A0
:102E400080917E01882349F48091890190918A01C3
:102E5000A0918B01B0918C0108C080918D0190915F
:102E60008E01A0918F01B091900120917A01309153
:102E70007B0140917C0150917D01820F931FA41F23
:102E8000B51F80937A0190937B01A0937C01B0934E
:102E90007D010E949C0E51C0809180019091810122
:102EA000A0918201B09183018C599F4FAF4FBF4FCA
:102EB0008093800190938101A0938201B09383015C
:102EC00081519742A040B04060F080E197E2A0E0DD
:102ED000B0E08093800190938101A0938201B09330
:102EE000830181E10E94B71128C0809184019091F3
:102EF0008501A0918601B09187018C599F4FAF4FFA
:102F0000BF4F8093840190938501A0938601B09375
:102F1000870181519742A040B04060F080E197E284
:102F2000A0E0B0E08093840190938501A093860196
:102F3000B093870188E10E9487130E94800B8091E3
:102F40005E01813081F48091B901863060F08A3071
:102F500050F48F5F8093B9018A3019F489E080932F
:102F6000B9010E94BA1480915E01823009F040C01C
:102F70008091B901833019F08430C1F51CC0809173
:102F80009B0190919C012091910130919201820FBF
:102F9000931F90939201809391012091970130911A
:102FA00098012817390720F430939201209391015A
:102FB0000E94F9101BC0209193013091940140911F
:102FC000A3015091A401CA018456904028173907E3
:102FD00038F42C593F4F309394012093930104C04F
:102FE00050939401409393010E94CA120E94800B57
:102FF00080915E01843061F48091B7018F5F80938E
:10300000B701893018F088E08093B7010E94F20F71
:1030100080915E01853061F48091BA018F5F809369
:10302000BA01843018F083E08093BA010E94420A0A
:1030300008958091B9018A3031F08AE08093B90116
:103040000E94BA14089586E166E041E02EE232E182
:103050000E94A5080E94A8090895E091B901409135
:1030600026012E2F30E025503040842F90E08F70C5
:1030700090702817390739F04F704B5F4093B901B2
:103080000E94BA14089587E0E89F9001112421530B
:103090003C4F80E106C0E82FF0E0E050FF4F908306
:1030A0008F5FF9012F5F3F4F94919923A1F787E13B
:1030B00069E041E02CE835E10E94A5080E94A809DA
:1030C0000895E091B9018E2F8650843030F086E06B
:1030D0008093B9010E94BA14089587E0E89FC00167
:1030E000112481539C4F20E106C0E22FF0E0E05014
:1030F000FF4F30832F5FFC01019634913323A9F7F2
:1031000087E169E041E02CE835E10E94A5080E94D2
:10311000A809089580917901882349F48091770165
:10312000909178018E509F4011F40E94F60A809190
:103130007901813061F48091B9018F5F8093B90189
:10314000893018F086E08093B9010E9461180895D3
:1031500081E080935E018093BA0186E08093B9019B
:103160008EE38093B80180E090E020E2FC01E05023
:10317000FF4F2083019680329105C1F70E94BA1457
:10318000089583E080935E018093BA011092B901A3
:10319000609193017091940180E090E024E630E02A
:1031A00040E050E00E948A1F20E137E240E050E01A
:1031B0000E94BD1F822F0E9477066091930170913B
:1031C00094017695679580E090E068577C4E8F4F2C
:1031D0009F4F0E947D050E94900C089582E080938D
:1031E0005E018093BA0183E08093B90160919301FD
:1031F0007091940180E090E024E630E040E050E0FF
:103200000E948A1F20E137E240E050E00E94BD1F8B
:10321000822F0E94770660919301709194017695B8
:10322000679580E090E068577C4E8F4F9F4F0E94DB
:103230007D050E94F9100895809188018F5F809329
:103240008801883010F01092880182E190E060914E
:1032500088010E9493050E949D0A80E00E94FE065C
:1032600080918801873011F40E947E0F809179014E
:10327000882311F40E949C0D80917901813011F412
:103280000E94E40C089580916E018823C9F081505A
:1032900080936E0190916D0108C0E0916A01F091F8
:1032A0006B01E90FF11D808181839150B1F7E091AD
:1032B0006A01F0916B018FE580830E94A80908954F
:1032C0000E940E1A8DE080937501809176018093A3
:1032D0005E01E0917701F091780109950895809160
:1032E000B901813011F482E001C081E08093B9011D
:1032F0000E940E1A0E94900C08958091B9018430AA
:1033000031F084E08093B9010E94CA12089585E1EA
:1033100065E042E02DE633E10E94A5080E940E1A06
:103320000E94A80908958091B9018B3031F08BE09B
:103330008093B9010E94BA14089586E166E041E0E5
:103340002CE334E10E94A5080E940E1A0E94A809ED
:1033500008958091BA01809379010E94800B0E94A8
:103360000E1A8091790190E0880F991F8F5A9C4F17
:10337000FC0125913491F9010995089581E165E0F9
:1033800044E023EC30E10E94A5080E940E1A0E943E
:10339000A80908950E940E1A1092B7010E94F20F18
:1033A00008958091B7018830A1F484E10E94E90476
:1033B00027EB35E0A1E9B1E0F90184918D932F5F0E
:1033C0003F4FF1E0A53ABF07B9F70E94800B0E947A
:1033D000EE180895E0912901E63138F4F0E080918B
:1033E0002601E150FF4F808313C0E63139F483E4B6
:1033F0008093160187E5809317010AC0E73141F4F5
:1034000083E48093190180931A0187E580931B015F
:1034100080914D01806880934D0108951F938091A4
:103420002201882309F45FC08FE790E00E948C0599
:10343000182F11508FE790E0612F0E949305112300
:1034400009F051C08FE790E060E00E949305A8E189
:10345000B4E020E030E0F901E050FF4F80818D932F
:103460002F5F3F4F84E0A833B807A9F780E060E200
:1034700040E20E94590B80E090E005C0FC01E15061
:10348000FF4F20952083AC0140505F4FFC01E75176
:10349000F94F24910196222389F7DA0182EF96E011
:1034A00004C0209517962C931797FC010196249140
:1034B00011962223B1F70E94FE0612E380E69AEEEF
:1034C0000E940F081150D1F7A8E1B4E020E030E0ED
:1034D000F901E050FF4F8D9180832F5F3F4F84E0D3
:1034E000A833B807A9F71F9108950E94E20880E069
:1034F00062E076E00E944B0B84E70E94FE0689E0C2
:103500008093330183E391E00E94AD0680E49CE95F
:10351000909331018093300107C04A9905C00E9401
:10352000CF1D8D3339F411C080913001909131015C
:10353000892B99F780E167E176E00E944B0B80913F
:103540004D01806880934D01089580E162E176E04D
:10355000F4CF1F938EE38093B8018091B9011CE0F2
:10356000819FF0011124EB56F94F85919591A5911A
:10357000B49180937A0190937B01A0937C01B093E6
:103580007D0110927E010E949C0D9091B90183E013
:10359000989FF0011124EE0FFF1FEE0FFF1FE7565B
:1035A000F94F659175918591949124E630E040E062
:1035B00050E00E948A1F20E137E240E050E00E9484
:1035C000BD1F822F0E9477068091B901819FF00173
:1035D0001124E356F94F65917591859194910E945C
:1035E0007D050E94E2088091B9018063809300010B
:1035F0008091BA01882329F48CE06DEF75E00E9478
:103600004B0B6091B90181E1689FB0011124625EAA
:10361000794F80E10E944B0B80914D01806880932F
:103620004D011F91089590912601953411F090332A
:1036300031F481E08093BA011092B90113C099333B
:1036400059F41092BA011092B90180E593EC90936D
:1036500031018093300106C081E08093BA019F70F0
:103660009093B9010E94A91A08950E947105809152
:103670004D01806880934D0108950E94710580E09E
:103680006DED75E00E944B0B80E16DEE75E00E94E0
:103690004B0B80914D01806880934D0108958DEB17
:1036A00091E090934B0480934A049093BC018093E3
:1036B000BB010895FC01A091BB01B091BC018081C8
:1036C0008C938091BB019091BC01019622E0893ED0
:1036D000920718F02DEB31E001C09C0180914A0463
:1036E00090914B042817390711F480E00895309326
:1036F000BC012093BB0181E00895DC01E0914A0404
:10370000F0914B048091BB019091BC01E817F9073F
:1037100011F480E0089580818C9380914A04909107
:103720004B04019622E0893E920740F08DEB91E038
:1037300090934B0480934A0481E0089590934B0446
:1037400080934A0481E0089540E020914A0430913A
:103750004B048091BB019091BC012817390709F4F3
:1037600041E0842F08958DEB91E090934B0480937A
:103770004A049093BC018093BB011092150488E920
:103780008093C1001092C50085E18093C40082E05F
:103790008093C0000895833E48F4813E50F4803108
:1037A00050F0823130F0843131F403C0885F8430CE
:1037B00010F481E0089580E008951F920F920FB6F3
:1037C0000F9211242F933F934F935F936F937F93A7
:1037D0008F939F93AF93BF93EF93FF93DF93CF9319
:1037E0000F92CDB7DEB78091C6008983CE010196D6
:1037F0000E945A1B0F90CF91DF91FF91EF91BF91E3
:10380000AF919F918F917F916F915F914F913F9178
:103810002F910F900FBE0F901F901895982F8CE648
:10382000809320012FE007C0E92FF0E08227E050CD
:10383000FF4F80839F5FFB016F5F7F4F84918823E1
:1038400099F70895EF92FF921F93CF93DF937C0136
:10385000EB016115710581F08EEF0E94E904F7011B
:1038600011917F01812F0E94E9041E3F19F480E02D
:103870000E94E904219799F7DF91CF911F91FF9062
:10388000EF900895EF92FF920F931F93CF93DF93E2
:103890008091E902813E09F4C0C0823E50F481313A
:1038A00009F473C0843109F490C0803109F0CCC0B0
:1038B000CEC0893FE1F08A3F20F4883F09F0C4C0C0
:1038C00006C08A3FD1F18B3F09F0BEC020C0C0E8DE
:1038D000D0E0FE01E459FD4F60816095CE010E9469
:1038E00093052196C23AD105A1F787E4AEC0809135
:1038F000EC028A3409F0ABC08091ED02893509F001
:10390000A6C080E890E06FEF0E949305EECF809113
:10391000EC02813A91F0823A28F4883131F3803A0E
:1039200059F505C0823A69F0833A31F517C08091A4
:103930004D018F7B80934D01D8CF80914D018064E4
:10394000F9CF80915E01882381F68091ED0283306A
:1039500060F68093B9010E94B30AC7CF80915E01DF
:10396000823018F68091ED02815008F487E0809350
:1039700088010E941C19B9CF8093290180932B01E3
:103980008091ED0280932601B0CF8091EC02807C83
:10399000803809F05CC0E090EF02F090F0020091F6
:1039A000F3021091F402C9EED2E00C0F1D1F09C002
:1039B0006E856095C7010E9493050894E11CF11C77
:1039C0002196C017D107A1F71CC08091ED029091FC
:1039D000EE029C0181E02130380710F020E031E058
:1039E000C0E0D1E0890100501F4F08C0FE01E9503E
:1039F000FE4FCE0160810E9493052196C017D1072A
:103A0000A9F783E18093180486E08093190410924B
:103A10001A0480E880931B040EC082EE8093180481
:103A200089E08093190410921A0487E480931B04A0
:103A300081E080931C046091190470911A0488E15C
:103A400094E00E94221C03C08FE30E94E904DF91EE
:103A5000CF911F910F91FF90EF9008958F929F92B9
:103A6000AF92BF92CF92DF92EF92FF920F931F938C
:103A7000DF93CF930F92CDB7DEB75E010894A11C00
:103A8000B11C88248A9491E0C92ED12C8EEF982EF7
:103A900061C080914D0186FF05C080912901882376
:103AA00009F064C0C5010E947D1B09818091150445
:103AB0000E3F11F480684CC087FF24C0182F1F7779
:103AC0001093150415FF0BC0002349F480911604D0
:103AD00090911704FC01E751FD4F90821DC0802F8B
:103AE0000E94CB1B882351F00093E9028092EB02E5
:103AF000D0921704C0921604106201C01F7D10936B
:103B0000150428C085FF26C08091160490911704E3
:103B1000FC01E751FD4F00830196909317048093B9
:103B200016042091160430911704F090EB02EE2455
:103B30008091EA0290E08E299F292817390718F40E
:103B40002D52314038F00E94421C809115048F7D27
:103B50008093150420914A0430914B048091BB015D
:103B60009091BC012817390709F093CF0F90CF919E
:103B7000DF911F910F91FF90EF90DF90CF90BF905A
:103B8000AF909F908F90089500000000000000000B
:103B90000000000000000000000000000895F894FC
:103BA000EF9380E8E7E5EA95F1F7EEEAEA95F1F7B9
:103BB00086954A998068C8F7EEEAEA95F1F7EF91A1
:103BC00078940895F894EF93FF935B9AEEEAEA9560
:103BD000F1F7EEEAEA95F1F7F9E0889410F05B98D6
:103BE00001C05B9AEEEAEA95F1F78695FA95B1F78E
:103BF0005B9AEEEAEA95F1F7FF91EF9178940895D8
:103C00000CD0EBC0E3D040F0DAD030F021F45F3FCD
:103C100019F0CCC0511115C1CFC0F0D098F3992341
:103C2000C9F35523B1F3951B550BBB27AA27621780
:103C30007307840738F09F5F5F4F220F331F441FC5
:103C4000AA1FA9F333D00E2E3AF0E0E830D09150FD
:103C50005040E695001CCAF729D0FE2F27D0660FEA
:103C6000771F881FBB1F261737074807AB07B0E829
:103C700009F0BB0B802DBF01FF2793585F4F2AF03F
:103C80009E3F510568F092C0DCC05F3FECF3983E68
:103C9000DCF3869577956795B795F7959F5FC9F79C
:103CA000880F911D9695879597F90895E1E0660F25
:103CB000771F881FBB1F621773078407BA0720F09E
:103CC000621B730B840BBA0BEE1F88F7E095089507
:103CD00004D06894B111B5C0089598D088F09F576A
:103CE00090F0B92F9927B751A0F0D1F0660F771F48
:103CF000881F991F1AF0BA95C9F712C0B13081F028
:103D00009FD0B1E008959CC0672F782F8827B85FB7
:103D100039F0B93FCCF3869577956795B395D9F788
:103D20003EF490958095709561957F4F8F4F9F4F92
:103D30000895E89409C097FB3EF49095809570959E
:103D400061957F4F8F4F9F4F9923A9F0F92F96E9E7
:103D5000BB279395F695879577956795B795F1115C
:103D6000F8CFFAF4BB0F11F460FF1BC06F5F7F4FF9
:103D70008F4F9F4F16C0882311F096E911C077230B
:103D800021F09EE8872F762F05C0662371F096E814
:103D9000862F70E060E02AF09A95660F771F881FE3
:103DA000DAF7880F9695879597F9089597F99F67A1
:103DB00080E870E060E008959FEF80EC08950024B3
:103DC0000A941616170618060906089500240A9480
:103DD00012161306140605060895092E0394000C06
:103DE00011F4882352F0BB0F40F4BF2B11F460FF95
:103DF00004C06F5F7F4F8F4F9F4F089557FD9058BE
:103E0000440F551F59F05F3F71F04795880F97FB9E
:103E1000991F61F09F3F79F0879508951216130658
:103E20001406551FF2CF4695F1DF08C01616170687
:103E30001806991FF1CF86957105610508940895BC
:103E4000E894BB2766277727CB0197F908950BD015
:103E5000C4CFB5DF28F0BADF18F0952309F0A6CF5C
:103E6000ABCF1124EECFCADFA0F3959FD1F3950F0E
:103E700050E0551F629FF001729FBB27F00DB11DEE
:103E8000639FAA27F00DB11DAA1F649F6627B00D7E
:103E9000A11D661F829F2227B00DA11D621F739F67
:103EA000B00DA11D621F839FA00D611D221F749F75
:103EB0003327A00D611D231F849F600D211D822FBC
:103EC000762F6A2F11249F5750408AF0E1F0882303
:103ED0004AF0EE0FFF1FBB1F661F771F881F915010
:103EE0005040A9F79E3F510570F060CFAACF5F3FC9
:103EF000ECF3983EDCF3869577956795B795F79543
:103F0000E7959F5FC1F7FE2B880F911D96958795CA
:103F100097F90895629FD001739FF001829FE00D91
:103F2000F11D649FE00DF11D929FF00D839FF00D38
:103F3000749FF00D659FF00D9927729FB00DE11DE4
:103F4000F91F639FB00DE11DF91FBD01CF011124C1
:103F50000895AA1BBB1B51E107C0AA1FBB1FA617D0
:103F6000B70710F0A61BB70B881F991F5A95A9F722
:103F700080959095BC01CD010895A1E21A2EAA1B4F
:103F8000BB1BFD010DC0AA1FBB1FEE1FFF1FA21709
:103F9000B307E407F50720F0A21BB30BE40BF50B06
:103FA000661F771F881F991F1A9469F7609570958F
:103FB000809590959B01AC01BD01CF010895F894C7
:023FC000FFCF31
:103FC200303132333435363738394142434445464D
:103FD2004748494A4B4C4D4E4F5051535455560049
:043FE20000000000DB
:00000001FF
